:020000040000FA
:060000000A128A11FC2F18
:100E6C00F201F301432FFF30831203138F00013083
:100E7C00F2070318F30A0030F30773087102031D1D
:100E8C00492F7208700203184C2F4D2F392FE73061
:100E9C00831203138E000C1090108B130B130C1079
:100EAC0090161012101110140C1C5D2F5E2F5A2F5F
:100EBC00080083160317890188018316031389011F
:100ECC00013086008312031389012130831603132A
:100EDC00860008308312031386000230F600863039
:100EEC00F5009930F400F40B792FF50B792FF60BF4
:100EFC00792FF701F801213083160313860008308F
:100F0C00831203138600B830F0000B30F1000A1284
:100F1C008A1136270A128A11213083160313860090
:100F2C001030831203138600B830F0000B30F10040
:100F3C000A128A1136270A128A11093083160313F2
:100F4C008600093086001030831203138600B830F7
:100F5C00F0000B30F1000A128A1136270A128A119E
:100F6C002030831203138600B830F0000B30F100F0
:100F7C000A128A1136270A128A11113083160313AA
:100F8C0086002030831203138600B830F0000B303B
:100F9C00F1000A128A1136270A128A1111308316AF
:100FAC00031386000830831203138600B830F00058
:100FBC000B30F1000A128A1136270A128A110130FD
:100FCC00F7070318F80A0030F8070B307802B8302E
:100FDC0003197702031CF32FF42F812F83120313B1
:100FEC0086018901F42F0A128A11002883010A1242
:040FFC008A115F2FC8
:04400E00F220FF3F5E
:00000001FF
