:020000040000FA
:060000000A128A11FC2F18
:100ECC000A128A1174270A128A110A128A118327AC
:100EDC000A128A116B2F0A128A1100288316031723
:100EEC008901880183160313880187018601831207
:100EFC000313860187018801080020308316031331
:100F0C00860008308312031386000330F200083089
:100F1C00F1007730F000F00B912FF10B912FF20BC9
:100F2C00912F203083160313860010308312031385
:100F3C0086000330F2000830F1007730F000F00B3F
:100F4C00A52FF10BA52FF20BA52F08308316031339
:100F5C00860010308312031386000330F200083031
:100F6C00F1007730F000F00BB92FF10BB92FF20B29
:100F7C00B92F083083160313860020308312031315
:100F8C0086000330F2000830F1007730F000F00BEF
:100F9C00CD2FF10BCD2FF20BCD2F10308316031369
:100FAC00860020308312031386000330F2000830D1
:100FBC00F1007730F000F00BE12FF10BE12FF20B89
:100FCC00E12F1030831603138600083083120313AD
:100FDC0086000330F2000830F1007730F000F00B9F
:100FEC00F52FF10BF52FF20BF52F080083010A12E8
:040FFC008A11662FC1
:04400E00F220FF3F5E
:00000001FF
