:020000040000FA
:100000000A128A11FC2F00308A000408840A820731
:1000100000340034003403341234123412340C34FB
:1000200000340034003403340E34113411340E34EF
:1000300000340E34093409341D34093409340E34C3
:1000400000340434083403341234123412340C34BF
:100050000034043402340E3401340F3411340F34BC
:10006000003499344E34673475347934C5346E3481
:1000700020345434203451347534D1346334203432
:1000800048346934C1346E34203431343934343432
:100090003734363430343834313420340034463454
:1000A0007234653471343D3438344B3448347A34E6
:1000B000203444343D3437343034253420340A3449
:1000C00020342034203420344D346F34643475347B
:1000D0006C344334433450343234203400344E349E
:1000E0002E34533469346E3468343A343134323413
:1000F0002D34313430342D343034313420340A341A
:10010000203420342034203420342B342B342B342E
:0A0110002B342B342034203400344B
:10093C008316031387148312031391015230831609
:10094C00031392003A30831203139B000C309D006A
:10095C009D121D1283160313871083120313920129
:10096C0012158316031309108312031309140800BC
:10097C0083120313A000D42C200884000A128A11BD
:10098C0003200A128A110A128A11B4250A128A113A
:10099C000130FD007D0883120313A007200884009A
:1009AC000A128A1103200A128A11003A031DDF2C45
:1009BC00E02CC22C0800F80076080319E62CE72C72
:1009CC00EC2C4030F7007708F900ED2CF901780891
:1009DC00F7007708F90779088038F7007708F300F3
:1009EC0000300A128A1137250A128A110A128A114A
:1009FC0007250A128A11003A031D052D062DFC2C21
:100A0C000800831603130816881608178817831214
:100A1C000313081588100630F000F00B132D00009E
:100A2C008312031388150630F000F00B1B2D000009
:100A3C00003083120313881B0130F100881106303B
:100A4C00F000F00B272D00008312031388150630DD
:100A5C00F000F00B2F2D0000831203138811710886
:100A6C000800F50083160313081288120813881364
:100A7C0075080319422D432D472D83120313881437
:100A8C004A2D8312031388100630F400F40B4C2DFE
:100A9C0000008312031308110630F400F40B542DDC
:100AAC0000008312031388117308F4000430031040
:100ABC00F40CFF3E031D5D2D74080A128A1170257B
:100ACC000A128A1173080F390A128A1170250A1238
:100ADC008A110800F10083160313081288120813F8
:100AEC0088137108F0007008F20072187E2D822DA8
:100AFC00831203130816852D831203130812F218A0
:100B0C00882D8C2D8312031388168F2D83120313BB
:100B1C0088127219922D962D831203130817992D92
:100B2C00831203130813F2199C2DA02D83120313A7
:100B3C008817A32D8312031388130630F000F00BD3
:100B4C00A52D00008312031388150630F000F00B5E
:100B5C00AD2D00008312031388110800FC00FC2D3E
:100B6C00F301F30A00300A128A1137250A128A118E
:100B7C000A128A1107250A128A11003A031DC72D81
:100B8C00C82DBE2D0F2EF601F60A00300A128A115E
:100B9C00E1240A128A110F2E1030FA007A08F300A1
:100BAC0000300A128A1137250A128A110A128A1188
:100BBC0007250A128A11003A031DE52DE62DDC2DBE
:100BCC000F2E7C08FA007A08F30001300A128A1101
:100BDC0037250A128A110A128A1107250A128A115C
:100BEC00003A031DFA2DFB2DF12D0F2E7C08FA0077
:100BFC00FB017B08003A0319042EE72D7A08083A0A
:100C0C000319D22D023A0319C92D063A0319B62D30
:100C1C00E72D080083160313881188100811081299
:100C2C008812081388131430F7007930F600F60B8D
:100C3C001D2EF70B1D2E222E831203138810081164
:100C4C00881103300A128A1170250A128A110D308C
:100C5C00F700FB30F600F60B312EF70B312E362E4B
:100C6C0003300A128A1170250A128A110D30F7000E
:100C7C00FB30F600F60B402EF70B402E452E0330C2
:100C8C000A128A1170250A128A110D30F700FB30F6
:100C9C00F600F60B4F2EF70B4F2E542E02300A1285
:100CAC008A1170250A128A110A128A1107250A1252
:100CBC008A11003A031D632E642E5A2E2830F6003A
:100CCC007608F30000300A128A1137250A128A11AD
:100CDC000A128A1107250A128A11003A031D772E6F
:100CEC00782E6E2E0C30F6007608F30000300A12C7
:100CFC008A1137250A128A110A128A1107250A123B
:100D0C008A11003A031D8B2E8C2E822EF301F30ACE
:100D1C0000300A128A1137250A128A110A128A1116
:100D2C0007250A128A11003A031D9D2E9E2E942E21
:100D3C000630F6007608F30000300A128A113725C7
:100D4C000A128A110A128A1107250A128A11003A0C
:100D5C00031DB12EB22EA82E08008316031789018D
:100D6C008801073083160313860081130730950022
:100D7C0083120618C22EC32E732F0730831203134F
:100D8C00A2007C30A100A10BC92EA20BC92E000021
:100D9C00073083160313860081130730950007155F
:100DAC000719D92EDD2E831603138714E02E831614
:100DBC000313871009108312031309106F2F0A12E3
:100DCC008A1110260A128A1183120313A3014030D0
:100DDC00A1002108F30000300A128A1137250A12EB
:100DEC008A110A128A1107250A128A11003A031D68
:100DFC00002F012FF72E232F2308013E84000A1207
:100E0C008A1103200A128A11A1002108F300013073
:100E1C000A128A1137250A128A110A128A11072519
:100E2C000A128A11003A031D1C2F1D2F132F01309B
:100E3C0083120313A1002108A307831203132308B1
:100E4C00013E84000A128A1103200A128A11993A6F
:100E5C00031D312F322F022F0C300A128A11B425A8
:100E6C000A128A11F60100300A128A11E1240A12C0
:100E7C008A1183120313A30123082A3E84000A1249
:100E8C008A1103200A128A110A128A11B4250A1235
:100E9C008A11013083120313A1002108A307153016
:100EAC002302031C5A2F5B2F422FF601F60A023045
:100EBC000A128A11E1240A128A113C300A128A1190
:100ECC00BE240A128A1183120313061C6E2F6F2F75
:100EDC00692F061C722F732FE52E8618762F772F0D
:100EEC00AD2F073083120313A2007C30A100A10B9D
:100EFC007D2FA20B7D2F0000A72F07308316031325
:100F0C0086008113073095000A128A1110260A12E6
:100F1C008A11F60101300A128A11E1240A128A118F
:100F2C0047300A128A11BE240A128A110A128A1137
:100F3C009E240A128A1183120313861CA62FA72F34
:100F4C00A12F83120313861CAC2FAD2F832F0619F0
:100F5C00B02FB12FBE2E073083120313A2007C30AA
:100F6C00A100A10BB72FA20BB72F00008316031300
:100F7C0007150719C22FC62F831603138714C92F01
:100F8C0083160313871009148312031309100730F7
:100F9C00831603138600811307309500F32F0A1272
:100FAC008A1110260A128A110C300A128A11B425E1
:100FBC000A128A11F60101300A128A11E1240A126E
:100FCC008A1167300A128A11BE240A128A118312FE
:100FDC000313061DF22FF32FED2F8312061DF72F8F
:100FEC00F82FD52FBE2E0A128A11002883010A125F
:040FFC008A11B32E75
:04400E00F220FF3F5E
:00000001FF
