:020000040000FA
:100000000A128A11FC2F00308A000408840A820731
:1000100000340C344E3467347534793465346E34BE
:1000200020345434723469346E346834203451349A
:1000300075346F34633420344834693465346E3435
:100040000A342034313439343434373436343034AB
:100050003834313400340C34443461346D34203459
:10006000563461346E3420344B34683461346E3429
:1000700067340A342034313437343034353434344E
:08008000323434343134003411
:100BAC0083120313A000EC2D200884000A128A1172
:100BBC0003200A128A110A128A11FD260A128A11BE
:100BCC000130FD007D0883120313A0072008840068
:100BDC000A128A1103200A128A11003A031DF72DFA
:100BEC00F82DDA2D0800F80076080319FE2DFF2DDC
:100BFC00042E4030F7007708F900052EF90178082B
:100C0C00F7007708F90779088038F7007708F300C0
:100C1C0000300A128A1180260A128A110A128A11CD
:100C2C001F260A128A11003A031D1D2E1E2E142E89
:100C3C0008008316031308168816081788178312E2
:100C4C000313081588100630F000F00B2B2E000053
:100C5C008312031388150630F000F00B332E0000BE
:100C6C00003083120313881B0130F1008811063009
:100C7C00F000F00B3F2E0000831203138815063092
:100C8C00F000F00B472E000083120313881171083B
:100C9C0008000A128A1159270A128A1101300A1205
:100CAC008A11D6250A128A110B3083120313A30062
:100CBC002630A2005D30A100A10B622EA20B622E89
:100CCC00A30B622E23300A128A11D6250A128A111E
:100CDC000B3083120313A3002630A2005D30A10059
:100CEC00A10B762EA20B762EA30B762E4F2E0A126C
:100CFC008A110028F50083160313081288120813B2
:100D0C008813750803198B2E8C2E902E83120313C7
:100D1C008814932E8312031388100630F400F40BFE
:100D2C00952E00008312031308110630F400F40B07
:100D3C009D2E00008312031388117308F4000430F5
:100D4C000310F40CFF3E031DA62E74080A128A1120
:100D5C00B9260A128A1173080F390A128A11B92698
:100D6C000A128A110800F100831603130812881264
:100D7C00081388137108F0007008F2007218C72E5F
:100D8C00CB2E831203130816CE2E831203130812D4
:100D9C00F218D12ED52E831203138816D82E831257
:100DAC00031388127219DB2EDF2E8312031308171C
:100DBC00E22E831203130813F219E52EE92E831287
:100DCC0003138817EC2E8312031388130630F000DC
:100DDC00F00BEE2E00008312031388150630F00082
:100DEC00F00BF62E00008312031388110800FC0090
:100DFC00452FF301F30A00300A128A1180260A12D9
:100E0C008A110A128A111F260A128A11003A031D2E
:100E1C00102F112F072F582FF601F60A00300A1247
:100E2C008A11F9250A128A11582F1030FA007A0803
:100E3C00F30000300A128A1180260A128A110A1253
:100E4C008A111F260A128A11003A031D2E2F2F2FEA
:100E5C00252F582F7C08FA007A08F30001300A126B
:100E6C008A1180260A128A110A128A111F260A1266
:100E7C008A11003A031D432F442F3A2F582F7C0818
:100E8C00FA00FB017B08003A03194D2F302F7A082A
:100E9C00083A03191B2F023A0319122F063A0319A9
:100EAC00FF2E302F080083160313881188100811A9
:100EBC0008128812081388131430F7007930F600E2
:100ECC00F60B662FF70B662F6B2F8312031388100C
:100EDC000811881103300A128A11B9260A128A11D4
:100EEC000D30F700FB30F600F60B7A2FF70B7A2F4C
:100EFC007F2F03300A128A11B9260A128A110D307B
:100F0C00F700FB30F600F60B892FF70B892F8E2F8D
:100F1C0003300A128A11B9260A128A110D30F70011
:100F2C00FB30F600F60B982FF70B982F9D2F023005
:100F3C000A128A11B9260A128A110A128A111F265C
:100F4C000A128A11003A031DAC2FAD2FA32F2830A3
:100F5C00F6007608F30000300A128A1180260A1275
:100F6C008A110A128A111F260A128A11003A031DCD
:100F7C00C02FC12FB72F0C30F6007608F3000030CD
:100F8C000A128A1180260A128A110A128A111F2645
:100F9C000A128A11003A031DD42FD52FCB2FF3013F
:100FAC00F30A00300A128A1180260A128A110A12D8
:100FBC008A111F260A128A11003A031DE62FE72F09
:100FCC00DD2F0630F6007608F30000300A128A1185
:100FDC0080260A128A110A128A111F260A128A11F5
:100FEC00003A031DFA2FFB2FF12F080083010A1280
:040FFC008A114F2ED9
:04400E00F220FF3F5E
:00000001FF
