:060000000A128A11FC2F18
:100DC8000130F2000030F300042FFF3083120313C8
:100DD8008F00E7308E000C1090108B130B130B1143
:100DE8009016101210141015F92E0C1CFC2EFD2E46
:100DF800F92EFE2E0130F2070318F30A0030F3072C
:100E080073087102031D0A2F7208700203180D2F50
:100E18000E2FE92E0F2F080083160317890188016A
:100E28008316031388010730860081130730950065
:100E38008312031388018618222F232F4E2F053083
:100E4800F0000030F1000A128A11E4260A128A1111
:100E58002D2F83120313061C322F332F2D2F342FDF
:100E68000530F0000030F1000A128A11E4260A1257
:100E78008A1155308312031388002030F0004E3059
:100E8800F1000A128A11E4260A128A118312031346
:100E980088014E2F0618512F522F7D2F0530F00054
:100EA8000030F1000A128A11E4260A128A115C2F16
:100EB80083120313061C612F622F5C2F632F0530EA
:100EC800F0000030F1000A128A11E4260A128A1191
:100ED800AA308312031388001030F0002730F10085
:100EE8000A128A11E4260A128A118312031388014E
:100EF8007D2F0619802F812FF92F0530F000003043
:100F0800F1000A128A11E4260A128A118B2F831221
:100F18000313061C902F912F8B2F922F0530F00072
:100F28000030F1000A128A11E4260A128A11FF30F1
:100F38008312031388008830F0001330F1000A127E
:100F48008A11E4260A128A11831203138801883051
:100F5800F0001330F1000A128A11E4260A128A11ED
:100F68000530F0000030F1000A128A11E4260A1256
:100F78008A11FF308312031388008830F000133081
:100F8800F1000A128A11E4260A128A118312031345
:100F980088018830F0001330F1000A128A11E42623
:100FA8000A128A110530F0000030F1000A128A1185
:100FB800E4260A128A11FF3083120313880088304E
:100FC800F0001330F1000A128A11E4260A128A117D
:100FD8008312031388018830F0001330F1000A12DD
:100FE8008A11E4260A128A11F92F0A128A11002896
:080FF80083010A128A11102F77
:04400E00F2E0FFFFDE
:00000001FF
