:020000040000FA
:060000000A128A110C280F
:10000800FE00030EF2000A08F3000A128A11A7285C
:100018000A128A110F280A128A11E1200A128A117B
:10002800F8000A128A11E2200A128A11F9008301E3
:100038000A128A1173286C2883120313A0018030D6
:10004800F6007608A100A201A20A870188012730DC
:10005800F700F530F600F60B2F28F70B2F285E284F
:1000680078087904031D39283A283D288701880132
:10007800722821088700220888002730F700F53009
:10008800F600F60B4528F70B4528831203132108C1
:10009800F6000310760C2104F7007708A100220867
:1000A800F60076072204F7007708A2000130F60070
:1000B8007608A0070830831203132002031C652862
:1000C800662834280130F4020030031CF503F502D9
:1000D80074087504031D71287228202808000A1264
:1000E8008A11CA200A128A118312031306187D285E
:1000F8007E28A428413083120313A400ED30A30006
:10010800A30B8428A40B8428892883120313061CB4
:100118008E288F28892878087904031D9428952823
:100128009A288312031387018801A4280130F40058
:100138000030F5000A128A111F200A128A118F282E
:100148000A128A110C280B1CAA28AB28C328831270
:1001580003138618B028B128C2284130F100EE30C8
:10016800F000F00BB528F10BB5280000831203133B
:10017800861CBF28C028BA28F801F9010B1073089B
:100188008A00720E8300FE0E7E0E09008316031786
:1001980089018801831603138801870103309500BC
:1001A80086008312031387018801831603138113C2
:0E01B8008B178B1503309600080001340034BD
:04400E00F220FF3F5E
:00000001FF
