:020000040000FA
:060000000A128A11F42F20
:100E18008316031388018701FF30860083160317A2
:100E2800880189013C30831203138F00B0308E0093
:100E380090109012101210151014F401F501F6011B
:100E4800F7010330F8000030F90003307806790420
:100E5800031D2F2F302F5D2F831203130618352FF4
:100E6800362F3F2FF801F901F401F5013C308F00CE
:100E7800B0308E00592F8618422F432F4A2F013049
:100E8800F8000030F900F401F5013A2F06194D2F4A
:100E98004E2F592F0230F8000030F900F401F50107
:100EA800F201F301F001F1013A2F831203138801D3
:100EB800292F831203130C1C622F632F6E2F0C1023
:100EC8003C308F00B0308E000130F4070318F50A6B
:100ED8000030F50778087904031D732F742F8B2FC2
:100EE8007508803AFF0080307F02031D7D2F143083
:100EF80074020318802F812F862FAA3083120313C0
:100F08008800292F0330F8000030F900592F7803A2
:100F18007904031D902F912FA32F7508803AFF00A5
:100F280080307F02031D9A2F2830740203189D2FEA
:100F38009E2F862F5530831203138800292F0230E5
:100F480078067904031DA92FAA2FF02F7508803A77
:100F5800FF0080307F02031DB32F0A307402031C88
:100F6800B62FB72FD42FF401F5010130F00703187D
:100F7800F10A0030F1070130F2070318F30A0030D4
:100F8800F3077308803AFF0080307F02031DCE2FDD
:100F980002307202031CD12FD22FD42FF201F30199
:100FA80072037304031DD92FDA2FDF2FFF3083124A
:100FB80003138800E22F8312031388017108803A13
:100FC800FF0080307F02031DEB2F07307002031CE7
:100FD800EE2FEF2FF02F252F292F0A128A11002824
:100FE800F001F101F201F301F401F501F601F70155
:080FF80083010A128A110C2F7B
:04400E00F22FFF3F4F
:00000001FF
