:020000040000FA
:060000000A128A11FC2F18
:100F2000831603178901880183160313880187013B
:100F300086018312031386018701880108000A12C3
:100F40008A1190270A128A110130F0000030F10056
:100F50000A128A11B1270A128A11A42F0A128A11C1
:100F60000028ED2F0830F5000030F600F701D02FF3
:100F70007708F2000310720C8038F3007308F70052
:100F800077088312031388000330F4000830F3005D
:100F90007730F200F20BCA2FF30BCA2FF40BCA2FD3
:100FA0000130F5020030031CF603F602750A031D3A
:100FB000DD2F760A031DDD2FDE2FB82F83120313DA
:100FC00088010330F4000830F3007730F200F20BB0
:100FD000E72FF30BE72FF40BE72F0130F00200307F
:100FE000031CF103F102700A031DFA2F710A031D9D
:100FF000FA2FFB2FB22F080083010A128A119F2FAC
:04400E00F220FF3F5E
:00000001FF
