:020000040000FA
:100000000A128A11FC2F00308A000408840A820731
:1000100000340234013400340E340A340A340F340C
:10002000003404340A3400340E340A340E340834F4
:100030000E3405340A3400340A340E3402340234E7
:100040000E34043402340134023401340A340A34E4
:100050000E34003400340034023401340E340A34D7
:100060000E3499344C340134203453340234203467
:1000700048346F3400346E34673444345434563466
:1000800054343134353442342D3431343934353408
:100090003234343432343534313400345434683406
:1000A000693420346B3465347434203474346834E7
:1000B0007534633420346D346F346E340A34203434
:1000C00067346F346F34643420346C347534633483
:0600D0006B342034003403
:1009D2008316031387148312031391016330831662
:1009E200031392002830831203139B000C309D00E6
:1009F2009D121D1283160313871083120313920193
:100A02001215831603130910831203130914080025
:100A120083120313A0001F2D200884000A128A11DA
:100A220003200A128A110A128A11FF250A128A1158
:100A32000130FD007D0883120313A0072008840003
:100A42000A128A1103200A128A11003A031D2A2D62
:100A52002B2D0D2D0800F80076080319312D322DAB
:100A6200372D4030F7007708F900382DF901780862
:100A7200F7007708F90779088038F7007708F3005C
:100A820000300A128A1182250A128A110A128A1168
:100A920052250A128A11003A031D502D512D472D5D
:100AA200080083160313081688160817881783127E
:100AB2000313081588100630F000F00B5E2D0000BD
:100AC2008312031388150630F000F00B662D000028
:100AD200003083120313881B0130F10088110630A5
:100AE200F000F00B722D00008312031388150630FC
:100AF200F000F00B7A2D00008312031388117108A5
:100B02000800F500831603130812881208138813CD
:100B1200750803198D2D8E2D922D831203138814BF
:100B2200952D8312031388100630F400F40B972DD1
:100B320000008312031308110630F400F40B9F2DFA
:100B420000008312031388117308F40004300310A9
:100B5200F40CFF3E031DA82D74080A128A11BB254E
:100B62000A128A1173080F390A128A11BB250A1256
:100B72008A110800F1008316031308128812081361
:100B820088137108F0007008F2007218C92DCD2D7B
:100B9200831203130816D02D831203130812F218BE
:100BA200D32DD72D831203138816DA2D8312031344
:100BB20088127219DD2DE12D831203130817E42D1B
:100BC200831203130813F219E72DEB2D831203137B
:100BD2008817EE2D8312031388130630F000F00BF2
:100BE200F02D00008312031388150630F000F00B7D
:100BF200F82D00008312031388110800FC00472E11
:100C0200F301F30A00300A128A1182250A128A11AC
:100C12000A128A1152250A128A11003A031D122E53
:100C2200132E092E5A2EF601F60A00300A128A11E4
:100C32002C250A128A115A2E1030FA007A08F30073
:100C420000300A128A1182250A128A110A128A11A6
:100C520052250A128A11003A031D302E312E272EF8
:100C62005A2E7C08FA007A08F30001300A128A111F
:100C720082250A128A110A128A1152250A128A112F
:100C8200003A031D452E462E3C2E5A2E7C08FA00B1
:100C9200FB017B08003A03194F2E322E7A08083ADC
:100CA20003191D2E023A0319142E063A0319012EB6
:100CB200322E0800831603138811881008110812B7
:100CC2008812081388131430F7007930F600F60BF7
:100CD200682EF70B682E6D2E8312031388100811ED
:100CE200881103300A128A11BB250A128A110D30AB
:100CF200F700FB30F600F60B7C2EF70B7C2E812ED4
:100D020003300A128A11BB250A128A110D30F7002C
:100D1200FB30F600F60B8B2EF70B8B2E902E03304A
:100D22000A128A11BB250A128A110D30F700FB3014
:100D3200F600F60B9A2EF70B9A2E9F2E02300A120D
:100D42008A11BB250A128A110A128A1152250A1225
:100D52008A11003A031DAE2EAF2EA52E2830F600C2
:100D62007608F30000300A128A1182250A128A11CB
:100D72000A128A1152250A128A11003A031DC22E42
:100D8200C32EB92E0C30F6007608F30000300A129A
:100D92008A1182250A128A110A128A1152250A120E
:100DA2008A11003A031DD62ED72ECD2EF301F30A57
:100DB20000300A128A1182250A128A110A128A1135
:100DC20052250A128A11003A031DE82EE92EDF2E5F
:100DD2000630F6007608F30000300A128A118225E6
:100DE2000A128A110A128A1152250A128A11003A2B
:100DF200031DFC2EFD2EF32E080083160317890116
:100E0200880107308316031386008113073095008B
:100E1200831206180D2F0E2FBE2F073083120313D5
:100E2200A2007C30A100A10B142FA20B142F0000F2
:100E320007308316031386008113073095000715C8
:100E42000719242F282F8316031387142B2F831699
:100E5200031387100910831203130910BA2F0A1201
:100E62008A115B260A128A1183120313A3014030EE
:100E7200A1002108F30000300A128A1182250A1209
:100E82008A110A128A1152250A128A11003A031D86
:100E92004B2F4C2F422F6E2F2308013E84000A1243
:100EA2008A1103200A128A11A1002108F3000130DD
:100EB2000A128A1182250A128A110A128A115225ED
:100EC2000A128A11003A031D672F682F5E2F013024
:100ED20083120313A1002108A3078312031323081B
:100EE200013E84000A128A1103200A128A11993AD9
:100EF200031D7C2F7D2F4D2F0C300A128A11FF25E6
:100F02000A128A11F60100300A128A112C250A12DD
:100F12008A1183120313A30123082A3E84000A12B2
:100F22008A1103200A128A110A128A11FF250A1253
:100F32008A11013083120313A1002108A30715307F
:100F42002302031CA52FA62F8D2FF601F60A0230CD
:100F52000A128A112C250A128A1135300A128A11B4
:100F620009250A128A1183120313061CB92FBA2FFC
:100F7200B42F061CBD2FBE2F302F8618C12FC22FB3
:100F8200092F073083120313A2007C30A100A10BAA
:100F9200C82FA20BC82F0000F22F073083160313AD
:100FA20086008113073095000A128A115B260A1205
:100FB2008A11F60101300A128A112C250A128A11AD
:100FC20046300A128A1109250A128A110A128A1156
:100FD200E9240A128A1183120313861CF12FF22FBD
:100FE200EC2F83120313861CF72FF82FCE2F092F15
:0E0FF2000A128A11002883010A128A11FE2EAB
:04400E00F220FF3F5E
:00000001FF
