:020000040000FA
:060000000A128A110C280F
:10000800FE00030EF2000A08F3000A128A11A6285D
:100018000A128A110F280A128A11E0200A128A117C
:10002800F8000A128A11E1200A128A11F9008301E4
:100038000A128A1172286B2883120313A0018030D8
:10004800F6007608A100A201A20A870188012730DC
:10005800F700F530F600F60B2F28F70B2F285E284F
:1000680078087904031D39283A283D288701880132
:10007800712821088700220888002730F700F5300A
:10008800F600F60B4528F70B4528831203132108C1
:10009800F6000310760C2104F7007708A100220867
:1000A800F60076072204F7007708A2000130F60070
:1000B8007608A0078312031320080319642865280B
:1000C80034280130F4020030031CF503F5027408EB
:1000D8007504031D70287128202808000A128A1147
:1000E800C9200A128A118312031306187C287D2856
:1000F800A328413083120313A400ED30A300A30BFF
:100108008328A40B8328882883120313061C8D28B0
:100118008E28882878087904031D9328942899281C
:100128008312031387018801A3280130F4000030EB
:10013800F5000A128A111F200A128A118E280A1243
:100148008A110C280B1CA928AA28C2288312031379
:100158008618AF28B028C1284130F100EE30F000F1
:10016800F00BB428F10BB428000083120313861C8B
:10017800BE28BF28B928F801F9010B1073088A00B6
:10018800720E8300FE0E7E0E090083160317880187
:1001980088018316031388018701033095008600C0
:1001A80083120313870188018316031381138B17A6
:0C01B8008B150330960008000134003461
:04400E00F220FF3F5E
:00000001FF
