:020000040000FA
:060000000A128A110C280F
:10000800FE00030EF2000A08F3000A128A112128E2
:100018000A128A110F280A128A116A200A128A11F2
:10002800F6000A128A116B200A128A11F700F401ED
:10003800F50183010A128A11612883120313061835
:10004800262827284428061C2A282B28272876080B
:1000580077040319302831284228FF3089007608B0
:100068007704031938283A2801303B280030F0007B
:10007800F1017008F6007108F70044288901332857
:100088000B1073088A00720E8300FE0E7E0E0900A4
:1000980083160317890188018316031389018312C4
:1000A8000313890101308316031395008600811319
:1000B8008B178B150130960008000A128A114C2004
:1000C8000A128A1166280A128A110C28013400348F
:04400E00F220FF3F5E
:00000001FF
