:100000000A128A11F82F00308A000408840A820735
:100010000034C0340034F9340034A4340034B03433
:100020000034993400349234003482340034F8348B
:0A00300000348034003490340034B2
:1000540083120313C800480803193128322846289C
:10006400C31F3528362846284009CA004109CB0059
:100074004209CC004309CD00CA0A0319CB0A03196B
:10008400CC0A0319CD0A4E284308CD004208CC00FF
:100094004108CB004008CA0043084204410440041C
:1000A400031D5528562860280030C3000030C200C4
:1000B4000030C1000030C000ED28ED289630C400A7
:1000C4004408C90073280130C4004408C90701303A
:1000D4000310CD0CCC0CCB0CCA0CFF3E031D6A28BC
:1000E4007328FE304D05031D782879286528962845
:1000F40096280130C4004408C9070130CA070030FB
:1001040003180130CB07003003180130CC0700304E
:1001140003180130CD0701300310CD0CCC0CCB0CEF
:10012400CA0CFF3E031D8E28FF304D05031D9B287E
:100134009C287B28AA28AA280130C9020130C400BF
:100144000310CA0DCB0DCC0DCD0DC40BA228AA28CB
:10015400CC1BAD28AE28B528023049020318B328B9
:10016400B4289E28B5284918B828B928C128FF30D2
:10017400CA05FF30CB057F30CC05FF30CD05031019
:10018400C90C4908C400C501C601C70118300310D1
:10019400C40DC50DC60DC70DFF3E031DC928440877
:1001A400CA044508CB044608CC044708CD044808D3
:1001B4000319DD28DE28E428C31FE128E228E42807
:1001C400CD17E4284D08C3004C08C2004B08C100F9
:1001D4004A08C000ED28080083120313230880395D
:1001E400F9007908A8002308F9007907FA007A08C9
:1001F400AE00A21FFE28FF2801292E1401292E0873
:1002040003190529062916292E0A031D0A290B2973
:1002140014290030A3000030A2000030A1000030F7
:10022400A0001429A2171F290030A3000030A20047
:100234000030A1000030A0001F2927088039F900F0
:100244007908A8062708F9007907FA007A08AD00AA
:10025400A61F2D292E2930292D1430292D080319E4
:100264003429352945292D0A031D39293A294329D9
:100274000030A7000030A6000030A5000030A40024
:100284004329A6174E290030A7000030A6000030ED
:10029400A5000030A4004E292D0803195229532922
:1002A40059292E08031D5729582963295929003033
:1002B400A3000030A2000030A1000030A000622C96
:1002C400622C2008F9007908F00026080A128A1521
:1002D40044200A128A11710883120313B4007008AF
:1002E400B3003308F900FA01FB01FC017C08AC00FF
:1002F4007B08AB007A08AA007908A9003408F90041
:10030400FA01FB01FC017C08B2007B08B1007A0809
:10031400B0007908AF002108F9007908F000250839
:100324000A128A1544200A128A11710883120313CF
:10033400B4007008B3003308F900FA01FB01FC01B2
:100344007908A9077A0803110318013E0319AB2998
:10035400AA077B0803110318013E0319B229AB074E
:100364007C0803110318013E0319B929AC073408AA
:10037400F900FA01FB01FC017908AF077A080311BF
:100384000318013E0319C729B0077B08031103189A
:10039400013E0319CE29B1077C0803110318013E5D
:1003A4000319D529B2072208F9007908F0002408B6
:1003B4000A128A1544200A128A117108831203133F
:1003C400B4007008B3003308F900FA01FB01FC0122
:1003D4007908A9077A0803110318013E0319F329C0
:1003E400AA077B0803110318013E0319FA29AB0776
:1003F4007C0803110318013E0319012AAC073408D1
:10040400F900FA01FB01FC017908AF077A0803112E
:100414000318013E03190F2AB0077B0803110318C0
:10042400013E0319162AB1077C0803110318013E83
:1004340003191D2AB2070830F9000310A90DAA0DEB
:10044400AB0DAC0DF90B1F2A2108F9007908F00057
:1004540024080A128A1544200A128A117108831288
:100464000313B4007008B3003308F9003408FA0029
:10047400FB01FC017908A9077A0803110318013E5E
:100484000319452AAA077B0803110318013E03191F
:100494004C2AAB077C0803110318013E0319532AA5
:1004A400AC072008F9007908F00025080A128A151B
:1004B40044200A128A11710883120313B4007008CD
:1004C400B3003308F9003408FA00FB01FC01790891
:1004D400A9077A0803110318013E0319722AAA070F
:1004E4007B0803110318013E0319792AAB077C0822
:1004F40003110318013E0319802AAC070830F900E0
:100504000310A90DAA0DAB0DAC0DF90B822A20081E
:10051400F9007908F00024080A128A1544200A1206
:100524008A11710883120313B4007008B3003308EE
:10053400F9003408FA00FB01FC017908A9077A08DC
:1005440003110318013E0319A82AAA077B08031103
:100554000318013E0319AF2AAB077C0803110318E3
:10056400013E0319B62AAC072108F9007908F00006
:1005740026080A128A1544200A128A117108831265
:100584000313B4007008B3003308F9003408FA0008
:10059400FB01FC017908AF077A0803110318013E37
:1005A4000319D52AB0077B0803110318013E031968
:1005B400DC2AB1077C0803110318013E0319E32A5E
:1005C400B2072208F9007908F00025080A128A15F2
:1005D40044200A128A11710883120313B4007008AC
:1005E400B3003308F9003408FA00FB01FC01790870
:1005F400AF077A0803110318013E0319022BB00751
:100604007B0803110318013E0319092BB1077C0869
:1006140003110318013E0319102BB2072208F90035
:100624007908F00026080A128A1544200A128A1151
:10063400710883120313B4007008B3003308F9007F
:100644003408FA00FB01FC0108300310F90DFA0D1F
:10065400FB0DFC0DFF3E031D272B7908AF077A081D
:1006640003110318013E0319382BB0077B0803114B
:100674000318013E03193F2BB1077C08031103182B
:10068400013E0319462BB2072908F9002A08FA008B
:100694002B08FB002C08FC0018300310FC0CFB0C8E
:1006A400FA0CF90CFF3E031D4F2B7908AF077A08AB
:1006B40003110318013E0319602BB0077B080311D3
:1006C4000318013E0319672BB1077C0803110318B3
:1006D400013E03196E2BB2070830F9000310A90D6F
:1006E400AA0DAB0DAC0DF90B702B2E082D07F900DC
:1006F400FA01FA0D7908823EB3007A080318013E24
:10070400FF3EB400A42B0130F9000310AF0DB00D6F
:10071400B10DB20DF90B872BAC1F912B922B942B9F
:100724002F14942B0130F9000310A90DAA0DAB0D61
:10073400AC0DF90B962BFF30B3070318B40AFF3046
:10074400B407A42BB11FA72BA82B852BA92BAD0174
:10075400AC1FAD2BAE2BCE2BFF302905F900FF309B
:100764002A05FA00FF302B05FB007F302C05FC0026
:100774007C087B047A0479040319C12BC22BC52B92
:10078400AD01AD0ACE2B2F1CC82BC92BCE2BAD012E
:10079400AD0ACE2BCE2BCE2B2D080319D22BD32B67
:1007A400062C0130AF07003003180130B0070030C9
:1007B40003180130B107003003180130B207321CAE
:1007C400E42BE52B062C2F08F9003008FA00310839
:1007D400FB003208FC000130FD007C0DFC0CFB0C1E
:1007E400FA0CF90CFD0BEF2B7C08B2007B08B1006E
:1007F4007A08B0007908AF000130B3070318B40ACF
:100804000030B407062C062C3408803AFF008030F0
:100814007F02031D0F2CFF303302031C122C132CF8
:100824001E2C7F3083120313B2008030B1000030DD
:10083400B0000030AF00552C831203133408803A03
:10084400FF0080307F02031D292C0130330203187E
:100854002C2C2D2C392C003083120313B2000030C1
:10086400B1000030B0000030AF00A801552C831255
:1008740003133308F9007908AE00FF30AF05FF30E9
:10088400B0057F30B1050030B2052E1C4A2C4B2C2C
:100894004D2CB1174D2C2E08F9000310790CFA00D9
:1008A4007A08B200552C2808F9007908B2043208F5
:1008B400A3003108A2003008A1002F08A000622C78
:1008C4000800831203136008803983160313A00001
:1008D400200883120313E500600883160313A000A5
:1008E4002007A100210883120313E700DF1F7B2CDC
:1008F4007C2C7E2C67147E2C67080319822C832C95
:10090400942C670A031D872C882C912C0030E0005E
:100914000030DF000030DE000030DD00912CDF17F6
:10092400E0019D2C0030E0000030DF000030DE00EC
:100934000030DD009D2C6408803983160313A00069
:10094400200883120313E600660865060319AB2C1E
:10095400AC2CAE2C6517AE2C640883160313A000D0
:100964002007A100210883120313E600E31FBB2C18
:10097400BC2CBE2C6614BE2C66080319C22CC32CD6
:10098400D42C660A031DC72CC82CD12C0030E400DB
:100994000030E3000030E2000030E100D12CE31726
:1009A400E401DC2C0030E4000030E3000030E2001D
:1009B4000030E100670866020318E12CE22C682D80
:1009C400651FE52CE62CEF2C803083160313A00062
:1009D400200883120313E506EF2C6708831603131C
:1009E400A000200883120313E8006608831603138B
:1009F400A000200883120313E7006808831603137A
:100A0400A000200883120313E6005D088316031375
:100A1400A000200883120313E8006108831603135F
:100A2400A000200883120313DD0068088316031353
:100A3400A000200883120313E1005E088316031349
:100A4400A000200883120313E8006208831603132E
:100A5400A000200883120313DE0068088316031322
:100A6400A000200883120313E2005F088316031317
:100A7400A000200883120313E800630883160313FD
:100A8400A000200883120313DF00680883160313F1
:100A9400A000200883120313E300600883160313E5
:100AA400A000200883120313E800640883160313CC
:100AB400A000200883120313E000680883160313C0
:100AC400A000200883120313E400682DE8016708DE
:100AD40083160313A000A101A009A109A00A031908
:100AE400A10A831203136608831603132007A200C6
:100AF40021080318210AA3002308803AFF0080304C
:100B04007F02031D872D1A302202031C8A2D8B2D90
:100B1400E02D8312031360085F045E045D04031D6B
:100B2400942D962D0130972D003083160313A000C9
:100B3400200883120313E8000030E0000030DF00D7
:100B44000030DE000030DD00660883160313A000C9
:100B5400200883120313E700E92DE02D681CB32D50
:100B6400B42DC12D680883160313A0000310200CB4
:100B74000138A100210883120313E800C42D0310D7
:100B8400E80CC42D5D1CC72DC82DCA2DE817CA2D2D
:100B9400013083160313A00083120313600DE00CCD
:100BA400DF0CDE0CDD0C83160313A00BCE2D0130FD
:100BB400A000200883120313E707E02D8312031318
:100BC40066086702031CE72DE82DB02DE92D651B8F
:100BD400EC2DED2D472E6708031DF12DF22DFC2D74
:100BE4000030E0000030DF000030DE000030DD00C7
:100BF400F72FF72F6108DD07620803110318013E80
:100C04000319052EDE07630803110318013E0319B7
:100C14000C2EDF07640803110318013E0319132E79
:100C2400E007601C162E172E4C2F681C1A2E1B2E44
:100C3400272E0310E80C6808013883160313A0005C
:100C4400200883120313E8002A2E0310E80C2A2E2E
:100C54005D1C2D2E2E2E302EE817302E01308316DB
:100C64000313A00083120313600DE00CDF0CDE0CF1
:100C7400DD0C83160313A00B342E0130A0002008D2
:100C840083120313E7074C2F4C2F6008803AFF00B0
:100C94006408803A7F02031D592E63085F02031D16
:100CA400592E62085E02031D592E61085D02031865
:100CB4005C2E5D2EF72EFF3083160313A000FF3049
:100CC400A100FF30A200FF30A300831203136108C8
:100CD40083160313A40083120313620883160313F9
:100CE400A50083120313630883160313A60083125B
:100CF4000313640883160313A700831203135D0907
:100D040083160313A800831203135E0983160313C7
:100D1400A900831203135F0983160313AA00831225
:100D24000313600983160313AB00A80A0319A90A65
:100D34000319AA0A0319AB0A2808A40729080318E7
:100D4400290FA52EA62EA5072A0803182A0FAB2EB5
:100D5400AC2EA6072B0803182B0AA7072408A00704
:100D640025080318250FB72EB82EA1072608031847
:100D7400260FBD2EBE2EA20727080318270AA30795
:100D8400230883120313E00083160313220883123B
:100D94000313DF0083160313210883120313DE00F9
:100DA40083160313200883120313DD008030831697
:100DB4000313A000200883120313E506E809E80AD8
:100DC4006808031DE62EE72E052F0130DD070030ED
:100DD40003180130DE07003003180130DF0700304C
:100DE40003180130E007052F052F6108DD026208B2
:100DF400031C620FDE026308031C630FDF02640836
:100E0400031C640FE00260085F045E045D04031DBC
:100E14000C2F0D2F462F6808031D112F122F462F5C
:100E24000030E0000030DF000030DE000030DD0084
:100E3400F72FF72F462F013083160313A00003105A
:100E440083120313DD0DDE0DDF0DE00D8316031396
:100E5400A00B212F83120313E81F312F322F332FBE
:100E64005D14681C362F372F3A2F0314E80D3D2FDD
:100E74000310E80D3D2F67080319412F422F462F19
:100E84000130E702462F462FDF1F492F4A2F1D2F1F
:100E94004C2F4C2FE601E81F502F512F632F680869
:100EA4007F390319562F572F5A2FE601E60A632F6D
:100EB4005D1C5D2F5E2F632FE601E60A632F632F0F
:100EC400632F66080319672F682FBE2F0130DD07D3
:100ED400003003180130DE07003003180130DF074B
:100EE400003003180130E007601C792F7A2FBE2FE1
:100EF4005D0883160313A000831203135E08831690
:100F04000313A100831203135F0883160313A200C3
:100F140083120313600883160313A3000130A40093
:100F2400230DA30CA20CA10CA00CA40B922F23083C
:100F340083120313E000831603132208831203139E
:100F4400DF0083160313210883120313DE008316C4
:100F54000313200883120313DD00670A0319B32F58
:100F6400B42FBE2F013083160313A0002008831270
:100F74000313E707BE2FBE2F670A0319C22FC32F1F
:100F8400C92F6708031DC72FC82FD92FC92F0030B9
:100F9400E0000030DF000030DE000030DD006708D4
:100FA400031DD52FD62FD92FE501D92FD92F671C93
:100FB400DC2FDD2FDF2FDF17E72F7F30831603139E
:100FC400A000200883120313DF05670883160313A8
:100FD400A0000310200CA100210883120313E000D9
:100FE400E51FF52FF62FF72FE017080083120313E0
:0C0FF400ED01EE0183010A128A158E2D1A
:10101A00831203135C085B045A0459040319162843
:10102A0017281A288030DC061A281B280800F40121
:10103A00F5011F28701C2228232829287208F40782
:10104A000318F50A7308F50701300310F20DF30DC2
:10105A00FF3E031D2A2801300310F10CF00CFF3E5D
:10106A00031D312870087104031D3C283D281F28E0
:10107A003E287508F1007408F00043280800F800BB
:10108A00F401F5017008F200F3017208F600730822
:10109A00F7004F28781C5228532859287608F40755
:1010AA000318F50A7708F50701300310F60DF70D56
:1010BA00FF3E031D5A280310F80C7808031D662802
:1010CA0067284F2868287508F1007408F0006D2811
:1010DA0008007308720471047004031D75287628C9
:1010EA007E287408840083138001840A8001AC2856
:1010FA00AC2873087F39F500F6010310F50DF60DDB
:10110A0074088400750883138000840A76088000B6
:10111A00720D720D0139F500F60174088400750824
:10112A008004840A76088004740884008230800768
:10113A00840F00080318000AFF00FF307F078000B1
:10114A008403730880393F38F300F213AC2808008F
:10115A00700871040319B228B328E828F501F50AC2
:10116A00C22801300310F00DF10DFF3E031DB72810
:10117A000130F4007408F507C228F11FC528C628F3
:10118A00B628C828C82871087302031DCE2870081B
:10119A007202031CD128D228D9287008F2027108D9
:1011AA00031CF303F302D92801300310F10CF00CED
:1011BA00FF3E031DDA280130F502031DE528E62863
:1011CA00C828E828E8287308F1007208F000ED281A
:1011DA000800FB01FC01760877040319F528F628B4
:1011EA003329FD01FD0A052901300310F60DF70D1B
:1011FA00FF3E031DFA280130FA007A08FD07052987
:10120A00F71F08290929F9280B290B29013003108E
:10121A00FB0DFC0DFF3E031D0C2977087902031D07
:10122A00182976087802031C1B291C292429760808
:10123A00F8027708031CF903F9027B142429013008
:10124A000310F70CF60CFF3E031D25290130FD02A1
:10125A00031D302931290B29332933297C08F7004A
:10126A007B08F60038290800831203135108F3009B
:10127A005008F2004F08F1004E08F0005730D20033
:10128A005208F4000A128A156E200A128A1583126D
:10129A000313D81F512952295C290030D10000308C
:1012AA00D0000030CF000030CE00962996290030B9
:1012BA0058021D3003195702031C6429652966293F
:1012CA0096295108B8005008B7004F08B6004E08D2
:1012DA00B5000A128A152A220A128A1583120313E2
:1012EA003808C3003708C2003608C1003508C000F4
:1012FA0001300A128A112A200A128A15831203134C
:10130A004308D6004208D5004108D4004008D3005B
:10131A005608D1005508D0005408CF005308CE0013
:10132A0096290800831203136C08E0006B08DF009B
:10133A006A08DE006908DD006C08D1006B08D0007D
:10134A006A08CF006908CE000A128A1539210A12E2
:10135A008A15831203135108DC005008DB004F087A
:10136A00DA004E08D9000A128A150D200A128A15C7
:10137A00831203135C08E4005B08E3005A08E200E6
:10138A005908E1000A128A1163240A128A15831283
:10139A000313600883160313AF00831203135F0855
:1013AA0083160313AE00831203135E088316031316
:1013BA00AD00831203135D0883160313AC002F08D4
:1013CA0083120313E000831603132E0883120313F8
:1013DA00DF00831603132D0883120313DE0083161E
:1013EA0003132C0883120313DD006C08E4006B0856
:1013FA00E3006A08E2006908E1000A128A1163241C
:10140A000A128A15831203136008EC005F08EB00C6
:10141A005E08EA005D08E9006C08D1006B08D0009C
:10142A006A08CF006908CE000A128A1539210A1201
:10143A008A15831203135108EC005008EB004F0879
:10144A00EA004E08E900292A080083120313350826
:10145A00B9003608BA003708BB003808BC000310C8
:10146A003B0D3C0DBD003D08BF003F08031D3E2A51
:10147A003F2A492A0030B8000030B7000030B600D1
:10148A000030B500C52AC52A3508B9003608BA00A1
:10149A003708BB003808BC001F300310BC0CBB0C5B
:1014AA00BA0CB90CFF3E031D522A3908BD003D088B
:1014BA00BE00B717FF30B505FF30B605FF30B705D8
:1014CA000030B8059630BF02BF1F6C2A6D2A922AD7
:1014DA003F08803A973E0318732A742A7F2A0030FD
:1014EA00B8000030B7000030B6000030B500C52A99
:1014FA00C52A7F2A01300310B80CB70CB60CB50CFC
:10150A00FF3E031D802A0130B9003908BF07031DB9
:10151A008F2A902A7F2AB52AB52A20303F02031C37
:10152A00972A982AAE2A0030B8000030B700003057
:10153A00B6000030B500C52AC52AAE2A0130B90066
:10154A000310B50DB60DB70DB80DB90BA52A0130AC
:10155A00BF023F08031DB22AB32AA32AB52AB52A15
:10156A003E080319B92ABA2AC52AB509B609B7091C
:10157A00B809B50A0319B60A0319B70A0319B80A4A
:10158A0008000030700583120313A00000307105B3
:10159A00A10080307205A2007F307305A3002308E2
:1015AA00220421042004031DDB2ADC2AE42A003059
:1015BA00F3000030F2000030F1000030F00000309B
:1015CA007405A00000307505A10080307605A200E0
:1015DA007F307705A3002308220421042004031D79
:1015EA00F72AF82A012B0030F7000030F600003005
:1015FA00F5000030F400012BF31F042B052B372BC9
:10160A000030A0000030A1000030A2008030A3000A
:10161A007009A4007109A5007209A6007309A70040
:10162A00A40A0319A50A0319A60A0319A70A240872
:10163A00A00725080318250F232B242BA10726080A
:10164A000318260F292B2A2BA20727080318270A73
:10165A00A3072308F3002208F2002108F10020085A
:10166A00F000372BF71F3A2B3B2B6D2B0030A000D5
:10167A000030A1000030A2008030A3007409A40049
:10168A007509A5007609A6007709A700A40A031917
:10169A00A50A0319A60A0319A70A2408A0072508F8
:1016AA000318250F592B5A2BA10726080318260FB2
:1016BA005F2B602BA20727080318270AA307230812
:1016CA00F7002208F6002108F5002008F4006D2B27
:1016DA008030F3068030F70677087302031D7F2BEC
:1016EA0076087202031D7F2B75087102031D7F2B7A
:1016FA00740870020318822B832B852B0310882B06
:10170A000314882B882B08008316031337088039A3
:10171A00B8003808BD003708B8003807B9003908DA
:10172A00C800B61F992B9A2B9C2B48149C2B48084F
:10173A000319A02BA12BB22B480A031DA52BA62BFC
:10174A00AF2B0030B7000030B6000030B5000030D3
:10175A00B400AF2BB617B701BB2B0030B70000306F
:10176A00B6000030B5000030B400BB2B3308803916
:10177A00B8003808BD063308B8003807B900390878
:10178A00C900B21FC92BCA2BCC2B4914CC2B490830
:10179A000319D02BD12BE22B490A031DD52BD62BAB
:1017AA00DF2B0030B3000030B2000030B10000304F
:1017BA00B000DF2BB217B301EA2B0030B3000030C0
:1017CA00B2000030B1000030B000330832043104F6
:1017DA003004031DF12BF22B082C0030B700003027
:1017EA00B6000030B5000030B4008030B6047F3057
:1017FA00B7043708B3003608B2003508B100340818
:10180A00B0008D2D8D2D4808031D0C2C0D2C1F2C7E
:10181A000030B7000030B6000030B5000030B40028
:10182A003708B3003608B2003508B1003408B000F2
:10183A008D2D8D2D4908B800B901B809B909B80A22
:10184A000319B90A48083807BA0039080318390AC7
:10185A00BB003A087F3EC2003B080318013E003E27
:10186A00C3003708C1003608C0003508BF00340875
:10187A00BE000030B7000030B6000030B5000030BE
:10188A00B4000030C7000030C6000030C500003088
:10189A00C400C9019E2C49080319542C552C772CD5
:1018AA000130B8000310BE0DBF0DC00DC10DB80B3D
:1018BA00572C0130B8000310B40DB50DB60DB70D95
:1018CA00B80B602CC71F6A2C6B2C6D2C34146D2C32
:1018DA000130B8000310C40DC50DC60DC70DB80BF5
:1018EA006F2C772C33084102031D852C32084002E5
:1018FA00031D852C31083F02031D852C30083E024A
:10190A00031C882C892C992C47173008BE023108F1
:10191A00031C310FBF023208031C320FC002330806
:10192A00031C330FC102992C0130B8003808C907CB
:10193A009E2C1A304902031CA32CA42C502CA52C33
:10194A00410840043F043E040319AC2CAD2CCF2CB3
:10195A004414CF2CCF2C0130B8000310B40DB50DB0
:10196A00B60DB70DB80BB22CC71FBC2CBD2CBF2CA3
:10197A003414BF2C0130B8000310C40DC50DC60DB8
:10198A00C70DB80BC12CFF30C2070318C30AFF30BA
:10199A00C307CF2CB61FD22CD32CB02CD42CC90100
:1019AA00C71FD82CD92CF92CFF304405B800FF30BA
:1019BA004505B900FF304605BA007F304705BB0030
:1019CA003B083A04390438040319EC2CED2CF02CAA
:1019DA00C901C90AF92C341CF32CF42CF92CC901BD
:1019EA00C90AF92CF92CF92C49080319FD2CFE2CEB
:1019FA00312D0130B407003003180130B50700302B
:101A0A0003180130B607003003180130B707371C36
:101A1A000F2D102D312D3408B8003508B9003608BD
:101A2A00BA003708BB000130BC003B0DBB0CBA0C36
:101A3A00B90CB80CBC0B1A2D3B08B7003A08B60013
:101A4A003908B5003808B4000130C2070318C30AC0
:101A5A000030C307312D312D4308803AFF00803012
:101A6A007F02031D3A2DFF304202031C3D2D3E2DFD
:101A7A004D2DFF3083160313C2000030C30000301F
:101A8A00B7000030B6000030B5000030B4004D2D6C
:101A9A00831603134308803AFF0080307F02031D38
:101AAA00582D0130420203185B2D5C2D692D8316D7
:101ABA000313C201C3010030B7000030B600003082
:101ACA00B5000030B400BD01831603134208B80004
:101ADA003808C800481C722D732D752DB617792D3C
:101AEA007F30B8003808B6054808B8000310380C2B
:101AFA00B9003908B7003D08B8003808B7043708F4
:101B0A00B3003608B2003508B1003408B0008D2D94
:101B1A00080001308316031788008901831603130E
:101B2A000514880187018601831203138601870140
:101B3A0088018030831603139F00813083120313B8
:101B4A009F00831603139F17CE01CF01AC2DAD2D35
:101B5A00AE2DAF2D831203139F14B32D9F18B62DEC
:101B6A00B72DB32DB82D1E0883160313CF001E08F8
:101B7A00CE004430B3007F30B200C030B100003034
:101B8A00B0000530F2000030F3004F08F1004E08B3
:101B9A00F0000A128A151C200A128A157008831688
:101BAA000313CA007108CB00CC01CD014D08831282
:101BBA000313C300831603134C0883120313C200D2
:101BCA00831603134B0883120313C10083160313EE
:101BDA004A0883120313C00000300A128A112A200D
:101BEA000A128A1583120313430883160313B700D4
:101BFA0083120313420883160313B60083120313D6
:101C0A00410883160313B500831203134008831691
:101C1A000313B4000A128A1589230A128A15831635
:101C2A0003133308D9003208D8003108D700300826
:101C3A00D6004230B300C830B2000030B1000030E4
:101C4A00B000423083120313A300C830A200003050
:101C5A00A1000030A000831603135908831203134E
:101C6A00A70083160313580883120313A6008316CA
:101C7A000313570883120313A50083160313560888
:101C8A0083120313A4000A128A11EE200A128A157B
:101C9A00831203132308EC002208EB002108EA0050
:101CAA002008E9000A128A1597210A128A15831256
:101CBA0003136C0883160313B700831203136B080C
:101CCA0083160313B600831203136A0883160313D9
:101CDA00B50083120313690883160313B4000A12AA
:101CEA008A1589230A128A15831603133308DD001D
:101CFA003208DC003108DB003008DA005908F3004A
:101D0A005808F2005708F1005608F0003F30F70073
:101D1A008030F6000030F5000030F4000A128A150F
:101D2A00C6220A128A1503189B2E9C2E362F83165A
:101D3A0003135D0883120313A700831603135C08B9
:101D4A0083120313A600831603135B08831203137B
:101D5A00A500831603135A0883120313A400443000
:101D6A00A3007A30A2000030A1000030A0000A12BD
:101D7A008A11EE200A128A15831203132308B80067
:101D8A002208B7002108B6002008B5000A128A15F1
:101D9A002A220A128A15831203133608831603139A
:101DAA00E10083120313350883160313E000610868
:101DBA00F3006008F2006430F0000030F1000A120B
:101DCA008A15AD200A128A15710883160313DF00DB
:101DDA007008DE000A30F0000030F1005F08F300FE
:101DEA005E08F2000A128A15AD200A128A157108D5
:101DFA0083160313D1007008D0006430F600003057
:101E0A00F7006108F9006008F8000A128A15EE2046
:101E1A000A128A15770883160313D3007608D200AC
:101E2A000A30F6000030F7006108F3006008F2009B
:101E3A006430F0000030F1000A128A15AD200A124F
:101E4A008A157108F9007008F8000A128A15EE203E
:101E5A000A128A15770883160313D5007608D40068
:101E6A00D02F831603135D0883120313A70083166A
:101E7A0003135C0883120313A600831603135B087B
:101E8A0083120313A500831603135A08831203133C
:101E9A00A4004230A300C830A2000030A1000030E4
:101EAA00A0000A128A11EE200A128A15831203135D
:101EBA002308B8002208B7002108B6002008B50098
:101ECA000A128A152A220A128A158312031336085D
:101EDA0083160313E10083120313350883160313D1
:101EEA00E0006430F6000030F7006108F90060088D
:101EFA00F8000A128A15EE200A128A157708831644
:101F0A000313D1007608D0000A30F6000030F7003B
:101F1A006108F3006008F2006430F0000030F1005C
:101F2A000A128A15AD200A128A157108F90070087A
:101F3A00F8000A128A15EE200A128A157708831603
:101F4A000313D3007608D2006108F3006008F20098
:101F5A006430F0000030F1000A128A15AD200A122E
:101F6A008A15710883160313DF007008DE000A3031
:101F7A00F0000030F1005F08F3005E08F2000A1278
:101F8A008A15AD200A128A15710883160313D50023
:101F9A007008D400D02F5008CA004A07013E8400B6
:101FAA000A128A1103200A128A1583120313870060
:101FBA00831603135208CA004A07013E84000A1214
:101FCA008A1103200A128A158312031388008316C2
:101FDA0003135408CA004A07013E84000A128A11F0
:101FEA0003200A128A15831203138600AC2DAC2D26
:061FFA000A128A11002802
:04400E00F2E0FFFFDE
:00000001FF
