:100000000A128A11FC2F00308A000408840A820731
:1000100000340034003403341234123412340C34FB
:1000200000340034003403340E34113411340E34EF
:1000300000340E34093409341D34093409340E34C3
:1000400000340434083403341234123412340C34BF
:100050000034043402340E3401340F3411340F34BC
:10006000003499344E34673475347934C5346E3481
:1000700020345434203451347534D1346334203432
:1000800048346934C1346E344434543456345434AE
:100090003134353441342D34313439343434373417
:1000A00036343034383431340034543468346934BC
:1000B00020346B34653474342034743468347534CB
:1000C000633420346D346F346E340A342034673432
:1000D0006F346F34643420346C34753463346B346F
:0400E0002034003494
:1009720083160313871483120313910163308316C2
:10098200031392002830831203139B000C309D0046
:100992009D121D12831603138710831203139201F3
:1009A2001215831603130910831203130914080086
:1009B200FD00EC2C7D0884000A128A1103200A1221
:1009C2008A110A128A11D3250A128A110130FC00F7
:1009D2007C08FD07EC2C7D0884000A128A11032092
:1009E2000A128A11003A031DF72CF82CDB2CF92C81
:1009F2000800F80076080319FF2C002D052D403061
:100A0200F7007708F900072DF901072D7808F7009C
:100A12007708F90779088038F7007708F300003083
:100A22000A128A1155250A128A11182D182D0A1236
:100A32008A1124250A128A11003A031D212D222D22
:100A4200182D232D0800831603130816881608177D
:100A5200881783120313081588100630F000F00B74
:100A6200302D00008312031388150630F000F00BBE
:100A7200382D0000003083120313881B0130F1006F
:100A820088110630F000F00B442D0000831203138E
:100A920088150630F000F00B4C2D00008312031372
:100AA20088117108542D0800F500831603130812EB
:100AB20088120813881375080319602D612D652D9E
:100AC200831203138814692D831203138810692D6E
:100AD2000630F400F40B6B2D00008312031308118F
:100AE2000630F400F40B732D0000831203138811F7
:100AF2007308F40004300310F40CFF3E031D7C2D38
:100B020074080A128A118F250A128A1173080F3982
:100B12000A128A118F250A128A110800F10083161F
:100B2200031308128812081388137108F000700862
:100B3200F20072189D2DA12D831203130816A42D05
:100B4200831203130812F218A72DAB2D831203137D
:100B52008816AE2D8312031388127219B12DB52D8A
:100B6200831203130817B82D831203130813F21903
:100B7200BB2DBF2D831203138817C22D83120313BB
:100B820088130630F000F00BC42D0000831203130B
:100B920088150630F000F00BCC2D000083120313F1
:100BA20088110800FB00242EF301F30A00300A1218
:100BB2008A1155250A128A11DF2DDF2D0A128A1198
:100BC20024250A128A11003A031DE82DE92DDF2D92
:100BD2002F2E2F2EF601F60A00300A128A11FA245D
:100BE2000A128A112F2E1030FA007A08F300003010
:100BF2000A128A1155250A128A11002E002E0A1293
:100C02008A1124250A128A11003A031D092E0A2E7E
:100C1200002E2F2E2F2E7B08FA007A08F3000130C7
:100C22000A128A1155250A128A11182E182E0A1232
:100C32008A1124250A128A11003A031D212E222E1E
:100C4200182E2F2E2F2E7B08083A0319F42D023A64
:100C52000319EB2D063A0319D52D0C2E0800831625
:100C620003138811881008110812881208138813B8
:100C72001430F7007930F600F60B3D2EF70B3D2EBF
:100C8200422E8312031388100811881103300A12AE
:100C92008A118F250A128A110D30F700FB30F600F7
:100CA200F60B512EF70B512E562E03300A128A11D3
:100CB2008F250A128A110D30F700FB30F600F60B71
:100CC200602EF70B602E652E03300A128A118F25D3
:100CD2000A128A110D30F700FB30F600F60B6F2E68
:100CE200F70B6F2E742E02300A128A118F250A1208
:100CF2008A117C2E7C2E0A128A1124250A128A114C
:100D0200003A031D852E862E7C2E872E2830F60073
:100D12007608F30000300A128A1155250A128A1148
:100D2200932E932E0A128A1124250A128A11003A4E
:100D3200031D9C2E9D2E932E9E2E0C30F6007608BF
:100D4200F30000300A128A1155250A128A11AA2EBE
:100D5200AA2E0A128A1124250A128A11003A031DA8
:100D6200B32EB42EAA2EB52EF301F30A00300A12C6
:100D72008A1155250A128A11BF2EBF2E0A128A1114
:100D820024250A128A11003A031DC82EC92EBF2E2D
:100D9200CA2E0630F6007608F30000300A128A11D5
:100DA20055250A128A11D62ED62E0A128A11242508
:100DB2000A128A11003A031DDF2EE02ED62EE12EF2
:100DC200080083160317890188010730831603136D
:100DD2008600811307309500EE2E83120618F22E3C
:100DE200F32EB92F073083120313A1007C30A00029
:100DF200A00BF92EA10BF92E000007308316031366
:100E0200860081130730950007150719092F0D2F4A
:100E1200831603138714102F8316031387100910E8
:100E2200831203130910B42F0A128A1130260A12F0
:100E32008A1183120313A2014030A0002008F3009C
:100E420000300A128A1155250A128A11292F292FD8
:100E52000A128A1124250A128A11003A031D322F1E
:100E6200332F292F5C2F5C2F831203132208013E9C
:100E720084000A128A1103200A128A11A000200893
:100E8200F30001300A128A1155250A128A114A2FDB
:100E92004A2F0A128A1124250A128A11003A031DC6
:100EA200532F542F4A2F552F013083120313A000C2
:100EB2002008A2075C2F831203132208013E84003C
:100EC2000A128A1103200A128A11993A031D6A2F03
:100ED2006B2F352F6C2F0C300A128A11D3250A1270
:100EE2008A11F60100300A128A11FA240A128A11B2
:100EF20083120313A20115302202031C812F822FB9
:100F0200842F9E2F9E2F22082A3E84000A128A11C5
:100F120003200A128A110A128A11D3250A128A118F
:100F2200013083120313A0002008A2071530220209
:100F3200031C9C2F9D2F842F9E2FF601F60A023050
:100F42000A128A11FA240A128A113C300A128A11F0
:100F5200D9240A128A11AD2F83120313061CB22F51
:100F6200B32FAD2FB42F061CB72FB82F152FB92FC3
:100F72008618BC2FBD2FEE2E073083120313A1005B
:100F82007C30A000A00BC32FA10BC32F0000EF2FBA
:100F920007308316031386008113073095000A1267
:100FA2008A1130260A128A11F60101300A128A11B8
:100FB200FA240A128A114D300A128A11D9240A120D
:100FC2008A110A128A11B9240A128A11E82F83128D
:100FD2000313861CED2FEE2FE82FEF2F831203133E
:100FE200861CF42FF52FC92FEE2EEE2EEE2EEE2EAE
:0E0FF2000A128A11002883010A128A11E22EC7
:04400E00F2E0FFFFDE
:00000001FF
