:020000040000FA
:100000000A128A11FC2F00308A000408840A820731
:1000100000340234013400340E340A340A340F340C
:10002000003404340A3400340E340A340E340834F4
:100030000E3405340A3400340A340E3402340234E7
:100040000E34043402340134023401340A340A34E4
:100050000E34003400340034023401340E340A34D7
:100060000E3499346E34E0346D34203476340334F5
:100070006E3420346B34683461346E346734483401
:100080006934E134BB3481346E3420343134373454
:100090003034353434343234343431342034003470
:1000A000203431343934343437343634303438341D
:0600B0003134203400345D
:100A580083120313A000422D200884000A128A1171
:100A680003200A128A110A128A1122260A128A11EE
:100A78000130FD007D0883120313A00720088400BD
:100A88000A128A1103200A128A11003A031D4D2DF9
:100A98004E2D302D0800F80076080319542D552DD9
:100AA8005A2D4030F7007708F9005B2DF9017808D6
:100AB800F7007708F90779088038F7007708F30016
:100AC80000300A128A11A5250A128A110A128A11FF
:100AD80075250A128A11003A031D732D742D6A2D8B
:100AE8000800831603130816881608178817831238
:100AF8000313081588100630F000F00B812D000054
:100B08008312031388150630F000F00B892D0000BE
:100B1800003083120313881B0130F100881106305E
:100B2800F000F00B952D0000831203138815063092
:100B3800F000F00B9D2D000083120313881171083B
:100B48000800F50083160313081288120813881387
:100B580075080319B02DB12DB52D83120313881410
:100B6800B82D8312031388100630F400F40BBA2D45
:100B780000008312031308110630F400F40BC22D91
:100B880000008312031388117308F4000430031063
:100B9800F40CFF3E031DCB2D74080A128A11DE25C2
:100BA8000A128A1173080F390A128A11DE250A12ED
:100BB8008A110800F100831603130812881208131B
:100BC80088137108F0007008F2007218EC2DF02DEF
:100BD800831203130816F32D831203130812F21855
:100BE800F62DFA2D831203138816FD2D8312031395
:100BF80088127219002E042E831203130817072E69
:100C0800831203130813F2190A2E0E2E83120313EC
:100C18008817112E8312031388130630F000F00B87
:100C2800132E00008312031388150630F000F00B12
:100C38001B2E00008312031388110800FC006A2E83
:100C4800F301F30A00300A128A11A5250A128A1143
:100C58000A128A1175250A128A11003A031D352EC7
:100C6800362E2C2E7D2EF601F60A00300A128A1135
:100C78004F250A128A117D2E1030FA007A08F300E7
:100C880000300A128A11A5250A128A110A128A113D
:100C980075250A128A11003A031D532E542E4A2E26
:100CA8007D2E7C08FA007A08F30001300A128A11B6
:100CB800A5250A128A110A128A1175250A128A11A3
:100CC800003A031D682E692E5F2E7D2E7C08FA00DF
:100CD800FB017B08003A0319722E552E7A08083A50
:100CE8000319402E023A0319372E063A0319242E07
:100CF800552E08008316031388118810081108124E
:100D08008812081388131430F7007930F600F60BB0
:100D18008B2EF70B8B2E902E83120313881008113D
:100D2800881103300A128A11DE250A128A110D3041
:100D3800F700FB30F600F60B9F2EF70B9F2EA42E24
:100D480003300A128A11DE250A128A110D30F700C3
:100D5800FB30F600F60BAE2EF70BAE2EB32E03309B
:100D68000A128A11DE250A128A110D30F700FB30AB
:100D7800F600F60BBD2EF70BBD2EC22E02300A125E
:100D88008A11DE250A128A110A128A1175250A1299
:100D98008A11003A031DD12ED22EC82E2830F60013
:100DA8007608F30000300A128A11A5250A128A1162
:100DB8000A128A1175250A128A11003A031DE52EB6
:100DC800E62EDC2E0C30F6007608F30000300A120E
:100DD8008A11A5250A128A110A128A1175250A1282
:100DE8008A11003A031DF92EFA2EF02EF301F30AA8
:100DF80000300A128A11A5250A128A110A128A11CC
:100E080075250A128A11003A031D0B2F0C2F022F89
:100E18000630F6007608F30000300A128A11A5257C
:100E28000A128A110A128A1175250A128A11003AC1
:100E3800031D1F2F202F162F08000A128A117E2645
:100E48000A128A1183120313A4014030A100210859
:100E5800F30000300A128A11A5250A128A110A1213
:100E68008A1175250A128A11003A031D3C2F3D2F5D
:100E7800332F5F2F2408013E84000A128A110320B1
:100E88000A128A11A1002108F30001300A128A11FE
:100E9800A5250A128A110A128A1175250A128A11C1
:100EA800003A031D582F592F4F2F01308312031377
:100EB800A1002108A407831203132408013E84001B
:100EC8000A128A1103200A128A11993A031D6D2FFA
:100ED8006E2F3E2F0C300A128A1122260A128A110E
:100EE800F601F60A00300A128A114F250A128A11F1
:100EF80048300A128A112C250A128A11F60100308C
:100F08000A128A114F250A128A1183120313A401A7
:100F18002408373E84000A128A1103200A128A1113
:100F28000A128A1122260A128A1101308312031327
:100F3800A1002108A4070C302402031CA42FA52F0C
:100F48008C2F0B3083120313A3002630A2005D30D0
:100F5800A100A10BAD2FA20BAD2FA30BAD2F0C3011
:100F68000A128A1122260A128A11F601F60A00309C
:100F78000A128A114F250A128A113D300A128A1163
:100F88002C250A128A11F60100300A128A114F25FF
:100F98000A128A1183120313A40124082A3E84002A
:100FA8000A128A1103200A128A110A128A112226A9
:100FB8000A128A11013083120313A1002108A40721
:100FC8000C302402031CE92FEA2FD12F0B30831297
:100FD8000313A3002630A2005D30A100A10BF22F5D
:100FE800A20BF22FA30BF22FF82F0A128A11002856
:080FF80083010A128A11212F66
:04400E00F220FF3F5E
:00000001FF
